{
  "_format": "hh-sol-artifact-1",
  "contractName": "KuverseNFT",
  "sourceName": "contracts/KuverseNFT.sol",
  "abi": [
    {
      "inputs": [],
      "stateMutability": "nonpayable",
      "type": "constructor"
    },
    {
      "inputs": [
        {
          "internalType": "address",
          "name": "sender",
          "type": "address"
        },
        {
          "internalType": "uint256",
          "name": "tokenId",
          "type": "uint256"
        },
        {
          "internalType": "address",
          "name": "owner",
          "type": "address"
        }
      ],
      "name": "ERC721IncorrectOwner",
      "type": "error"
    },
    {
      "inputs": [
        {
          "internalType": "address",
          "name": "operator",
          "type": "address"
        },
        {
          "internalType": "uint256",
          "name": "tokenId",
          "type": "uint256"
        }
      ],
      "name": "ERC721InsufficientApproval",
      "type": "error"
    },
    {
      "inputs": [
        {
          "internalType": "address",
          "name": "approver",
          "type": "address"
        }
      ],
      "name": "ERC721InvalidApprover",
      "type": "error"
    },
    {
      "inputs": [
        {
          "internalType": "address",
          "name": "operator",
          "type": "address"
        }
      ],
      "name": "ERC721InvalidOperator",
      "type": "error"
    },
    {
      "inputs": [
        {
          "internalType": "address",
          "name": "owner",
          "type": "address"
        }
      ],
      "name": "ERC721InvalidOwner",
      "type": "error"
    },
    {
      "inputs": [
        {
          "internalType": "address",
          "name": "receiver",
          "type": "address"
        }
      ],
      "name": "ERC721InvalidReceiver",
      "type": "error"
    },
    {
      "inputs": [
        {
          "internalType": "address",
          "name": "sender",
          "type": "address"
        }
      ],
      "name": "ERC721InvalidSender",
      "type": "error"
    },
    {
      "inputs": [
        {
          "internalType": "uint256",
          "name": "tokenId",
          "type": "uint256"
        }
      ],
      "name": "ERC721NonexistentToken",
      "type": "error"
    },
    {
      "inputs": [
        {
          "internalType": "address",
          "name": "owner",
          "type": "address"
        }
      ],
      "name": "OwnableInvalidOwner",
      "type": "error"
    },
    {
      "inputs": [
        {
          "internalType": "address",
          "name": "account",
          "type": "address"
        }
      ],
      "name": "OwnableUnauthorizedAccount",
      "type": "error"
    },
    {
      "inputs": [],
      "name": "ReentrancyGuardReentrantCall",
      "type": "error"
    },
    {
      "anonymous": false,
      "inputs": [
        {
          "indexed": true,
          "internalType": "address",
          "name": "owner",
          "type": "address"
        },
        {
          "indexed": true,
          "internalType": "address",
          "name": "approved",
          "type": "address"
        },
        {
          "indexed": true,
          "internalType": "uint256",
          "name": "tokenId",
          "type": "uint256"
        }
      ],
      "name": "Approval",
      "type": "event"
    },
    {
      "anonymous": false,
      "inputs": [
        {
          "indexed": true,
          "internalType": "address",
          "name": "owner",
          "type": "address"
        },
        {
          "indexed": true,
          "internalType": "address",
          "name": "operator",
          "type": "address"
        },
        {
          "indexed": false,
          "internalType": "bool",
          "name": "approved",
          "type": "bool"
        }
      ],
      "name": "ApprovalForAll",
      "type": "event"
    },
    {
      "anonymous": false,
      "inputs": [
        {
          "indexed": true,
          "internalType": "address",
          "name": "to",
          "type": "address"
        },
        {
          "indexed": true,
          "internalType": "uint256",
          "name": "tokenId",
          "type": "uint256"
        }
      ],
      "name": "Minted",
      "type": "event"
    },
    {
      "anonymous": false,
      "inputs": [
        {
          "indexed": true,
          "internalType": "address",
          "name": "previousOwner",
          "type": "address"
        },
        {
          "indexed": true,
          "internalType": "address",
          "name": "newOwner",
          "type": "address"
        }
      ],
      "name": "OwnershipTransferred",
      "type": "event"
    },
    {
      "anonymous": false,
      "inputs": [
        {
          "indexed": true,
          "internalType": "address",
          "name": "from",
          "type": "address"
        },
        {
          "indexed": true,
          "internalType": "address",
          "name": "to",
          "type": "address"
        },
        {
          "indexed": true,
          "internalType": "uint256",
          "name": "tokenId",
          "type": "uint256"
        }
      ],
      "name": "Transfer",
      "type": "event"
    },
    {
      "inputs": [
        {
          "internalType": "address",
          "name": "to",
          "type": "address"
        },
        {
          "internalType": "uint256",
          "name": "tokenId",
          "type": "uint256"
        }
      ],
      "name": "approve",
      "outputs": [],
      "stateMutability": "nonpayable",
      "type": "function"
    },
    {
      "inputs": [
        {
          "internalType": "address",
          "name": "owner",
          "type": "address"
        }
      ],
      "name": "balanceOf",
      "outputs": [
        {
          "internalType": "uint256",
          "name": "",
          "type": "uint256"
        }
      ],
      "stateMutability": "view",
      "type": "function"
    },
    {
      "inputs": [
        {
          "internalType": "uint256",
          "name": "tokenId",
          "type": "uint256"
        }
      ],
      "name": "getApproved",
      "outputs": [
        {
          "internalType": "address",
          "name": "",
          "type": "address"
        }
      ],
      "stateMutability": "view",
      "type": "function"
    },
    {
      "inputs": [
        {
          "internalType": "uint256",
          "name": "tokenId",
          "type": "uint256"
        }
      ],
      "name": "getNFTMetadata",
      "outputs": [
        {
          "components": [
            {
              "internalType": "string",
              "name": "name",
              "type": "string"
            },
            {
              "internalType": "string",
              "name": "description",
              "type": "string"
            },
            {
              "internalType": "string",
              "name": "rarity",
              "type": "string"
            }
          ],
          "internalType": "struct KuverseNFT.NFTMetadata",
          "name": "",
          "type": "tuple"
        }
      ],
      "stateMutability": "view",
      "type": "function"
    },
    {
      "inputs": [
        {
          "internalType": "address",
          "name": "owner",
          "type": "address"
        },
        {
          "internalType": "address",
          "name": "operator",
          "type": "address"
        }
      ],
      "name": "isApprovedForAll",
      "outputs": [
        {
          "internalType": "bool",
          "name": "",
          "type": "bool"
        }
      ],
      "stateMutability": "view",
      "type": "function"
    },
    {
      "inputs": [
        {
          "internalType": "address",
          "name": "to",
          "type": "address"
        },
        {
          "internalType": "string",
          "name": "name",
          "type": "string"
        },
        {
          "internalType": "string",
          "name": "description",
          "type": "string"
        },
        {
          "internalType": "string",
          "name": "rarity",
          "type": "string"
        }
      ],
      "name": "mintNFT",
      "outputs": [],
      "stateMutability": "nonpayable",
      "type": "function"
    },
    {
      "inputs": [],
      "name": "name",
      "outputs": [
        {
          "internalType": "string",
          "name": "",
          "type": "string"
        }
      ],
      "stateMutability": "view",
      "type": "function"
    },
    {
      "inputs": [],
      "name": "nextTokenId",
      "outputs": [
        {
          "internalType": "uint256",
          "name": "",
          "type": "uint256"
        }
      ],
      "stateMutability": "view",
      "type": "function"
    },
    {
      "inputs": [],
      "name": "owner",
      "outputs": [
        {
          "internalType": "address",
          "name": "",
          "type": "address"
        }
      ],
      "stateMutability": "view",
      "type": "function"
    },
    {
      "inputs": [
        {
          "internalType": "uint256",
          "name": "tokenId",
          "type": "uint256"
        }
      ],
      "name": "ownerOf",
      "outputs": [
        {
          "internalType": "address",
          "name": "",
          "type": "address"
        }
      ],
      "stateMutability": "view",
      "type": "function"
    },
    {
      "inputs": [],
      "name": "renounceOwnership",
      "outputs": [],
      "stateMutability": "nonpayable",
      "type": "function"
    },
    {
      "inputs": [
        {
          "internalType": "address",
          "name": "from",
          "type": "address"
        },
        {
          "internalType": "address",
          "name": "to",
          "type": "address"
        },
        {
          "internalType": "uint256",
          "name": "tokenId",
          "type": "uint256"
        }
      ],
      "name": "safeTransferFrom",
      "outputs": [],
      "stateMutability": "nonpayable",
      "type": "function"
    },
    {
      "inputs": [
        {
          "internalType": "address",
          "name": "from",
          "type": "address"
        },
        {
          "internalType": "address",
          "name": "to",
          "type": "address"
        },
        {
          "internalType": "uint256",
          "name": "tokenId",
          "type": "uint256"
        },
        {
          "internalType": "bytes",
          "name": "data",
          "type": "bytes"
        }
      ],
      "name": "safeTransferFrom",
      "outputs": [],
      "stateMutability": "nonpayable",
      "type": "function"
    },
    {
      "inputs": [
        {
          "internalType": "address",
          "name": "operator",
          "type": "address"
        },
        {
          "internalType": "bool",
          "name": "approved",
          "type": "bool"
        }
      ],
      "name": "setApprovalForAll",
      "outputs": [],
      "stateMutability": "nonpayable",
      "type": "function"
    },
    {
      "inputs": [
        {
          "internalType": "bytes4",
          "name": "interfaceId",
          "type": "bytes4"
        }
      ],
      "name": "supportsInterface",
      "outputs": [
        {
          "internalType": "bool",
          "name": "",
          "type": "bool"
        }
      ],
      "stateMutability": "view",
      "type": "function"
    },
    {
      "inputs": [],
      "name": "symbol",
      "outputs": [
        {
          "internalType": "string",
          "name": "",
          "type": "string"
        }
      ],
      "stateMutability": "view",
      "type": "function"
    },
    {
      "inputs": [
        {
          "internalType": "uint256",
          "name": "tokenId",
          "type": "uint256"
        }
      ],
      "name": "tokenURI",
      "outputs": [
        {
          "internalType": "string",
          "name": "",
          "type": "string"
        }
      ],
      "stateMutability": "view",
      "type": "function"
    },
    {
      "inputs": [
        {
          "internalType": "address",
          "name": "owner",
          "type": "address"
        }
      ],
      "name": "tokensOfOwner",
      "outputs": [
        {
          "internalType": "uint256[]",
          "name": "",
          "type": "uint256[]"
        }
      ],
      "stateMutability": "view",
      "type": "function"
    },
    {
      "inputs": [
        {
          "internalType": "address",
          "name": "from",
          "type": "address"
        },
        {
          "internalType": "address",
          "name": "to",
          "type": "address"
        },
        {
          "internalType": "uint256",
          "name": "tokenId",
          "type": "uint256"
        }
      ],
      "name": "transferFrom",
      "outputs": [],
      "stateMutability": "nonpayable",
      "type": "function"
    },
    {
      "inputs": [
        {
          "internalType": "address",
          "name": "newOwner",
          "type": "address"
        }
      ],
      "name": "transferOwnership",
      "outputs": [],
      "stateMutability": "nonpayable",
      "type": "function"
    }
  ],
  "bytecode": "0x60806040523480156200001157600080fd5b50336040518060400160405280600a81526020017f4b7576657273654e4654000000000000000000000000000000000000000000008152506040518060400160405280600681526020017f4b55564e4654000000000000000000000000000000000000000000000000000081525081600090816200009091906200047a565b508060019081620000a291906200047a565b505050600073ffffffffffffffffffffffffffffffffffffffff168173ffffffffffffffffffffffffffffffffffffffff16036200011a5760006040517f1e4fbdf7000000000000000000000000000000000000000000000000000000008152600401620001119190620005a6565b60405180910390fd5b6200012b816200013a60201b60201c565b506001600781905550620005c3565b6000600660009054906101000a900473ffffffffffffffffffffffffffffffffffffffff16905081600660006101000a81548173ffffffffffffffffffffffffffffffffffffffff021916908373ffffffffffffffffffffffffffffffffffffffff1602179055508173ffffffffffffffffffffffffffffffffffffffff168173ffffffffffffffffffffffffffffffffffffffff167f8be0079c531659141344cd1fd0a4f28419497f9722a3daafe3b4186f6b6457e060405160405180910390a35050565b600081519050919050565b7f4e487b7100000000000000000000000000000000000000000000000000000000600052604160045260246000fd5b7f4e487b7100000000000000000000000000000000000000000000000000000000600052602260045260246000fd5b600060028204905060018216806200028257607f821691505b6020821081036200029857620002976200023a565b5b50919050565b60008190508160005260206000209050919050565b60006020601f8301049050919050565b600082821b905092915050565b600060088302620003027fffffffffffffffffffffffffffffffffffffffffffffffffffffffffffffffff82620002c3565b6200030e8683620002c3565b95508019841693508086168417925050509392505050565b6000819050919050565b6000819050919050565b60006200035b620003556200034f8462000326565b62000330565b62000326565b9050919050565b6000819050919050565b62000377836200033a565b6200038f620003868262000362565b848454620002d0565b825550505050565b600090565b620003a662000397565b620003b38184846200036c565b505050565b5b81811015620003db57620003cf6000826200039c565b600181019050620003b9565b5050565b601f8211156200042a57620003f4816200029e565b620003ff84620002b3565b810160208510156200040f578190505b620004276200041e85620002b3565b830182620003b8565b50505b505050565b600082821c905092915050565b60006200044f600019846008026200042f565b1980831691505092915050565b60006200046a83836200043c565b9150826002028217905092915050565b620004858262000200565b67ffffffffffffffff811115620004a157620004a06200020b565b5b620004ad825462000269565b620004ba828285620003df565b600060209050601f831160018114620004f25760008415620004dd578287015190505b620004e985826200045c565b86555062000559565b601f19841662000502866200029e565b60005b828110156200052c5784890151825560018201915060208501945060208101905062000505565b868310156200054c578489015162000548601f8916826200043c565b8355505b6001600288020188555050505b505050505050565b600073ffffffffffffffffffffffffffffffffffffffff82169050919050565b60006200058e8262000561565b9050919050565b620005a08162000581565b82525050565b6000602082019050620005bd600083018462000595565b92915050565b612d0880620005d36000396000f3fe608060405234801561001057600080fd5b506004361061012c5760003560e01c806375794a3c116100ad578063a22cb46511610071578063a22cb46514610343578063b88d4fde1461035f578063c87b56dd1461037b578063e985e9c5146103ab578063f2fde38b146103db5761012c565b806375794a3c1461029d5780637791d3f3146102bb5780638462151c146102d75780638da5cb5b1461030757806395d89b41146103255761012c565b806342842e0e116100f457806342842e0e146101e75780636352211e146102035780636be9a6f11461023357806370a0823114610263578063715018a6146102935761012c565b806301ffc9a71461013157806306fdde0314610161578063081812fc1461017f578063095ea7b3146101af57806323b872dd146101cb575b600080fd5b61014b60048036038101906101469190611ea9565b6103f7565b6040516101589190611ef1565b60405180910390f35b6101696104d9565b6040516101769190611f9c565b60405180910390f35b61019960048036038101906101949190611ff4565b61056b565b6040516101a69190612062565b60405180910390f35b6101c960048036038101906101c491906120a9565b610587565b005b6101e560048036038101906101e091906120e9565b61059d565b005b61020160048036038101906101fc91906120e9565b61069f565b005b61021d60048036038101906102189190611ff4565b6106bf565b60405161022a9190612062565b60405180910390f35b61024d60048036038101906102489190611ff4565b6106d1565b60405161025a91906121e4565b60405180910390f35b61027d60048036038101906102789190612206565b6108fc565b60405161028a9190612242565b60405180910390f35b61029b6109b6565b005b6102a56109ca565b6040516102b29190612242565b60405180910390f35b6102d560048036038101906102d09190612392565b6109d0565b005b6102f160048036038101906102ec9190612206565b610b35565b6040516102fe919061250b565b60405180910390f35b61030f610bcc565b60405161031c9190612062565b60405180910390f35b61032d610bf6565b60405161033a9190611f9c565b60405180910390f35b61035d60048036038101906103589190612559565b610c88565b005b6103796004803603810190610374919061263a565b610c9e565b005b61039560048036038101906103909190611ff4565b610cc3565b6040516103a29190611f9c565b60405180910390f35b6103c560048036038101906103c091906126bd565b610d2c565b6040516103d29190611ef1565b60405180910390f35b6103f560048036038101906103f09190612206565b610dc0565b005b60007f80ac58cd000000000000000000000000000000000000000000000000000000007bffffffffffffffffffffffffffffffffffffffffffffffffffffffff1916827bffffffffffffffffffffffffffffffffffffffffffffffffffffffff191614806104c257507f5b5e139f000000000000000000000000000000000000000000000000000000007bffffffffffffffffffffffffffffffffffffffffffffffffffffffff1916827bffffffffffffffffffffffffffffffffffffffffffffffffffffffff1916145b806104d257506104d182610e46565b5b9050919050565b6060600080546104e89061272c565b80601f01602080910402602001604051908101604052809291908181526020018280546105149061272c565b80156105615780601f1061053657610100808354040283529160200191610561565b820191906000526020600020905b81548152906001019060200180831161054457829003601f168201915b5050505050905090565b600061057682610eb0565b5061058082610f38565b9050919050565b6105998282610594610f75565b610f7d565b5050565b600073ffffffffffffffffffffffffffffffffffffffff168273ffffffffffffffffffffffffffffffffffffffff160361060f5760006040517f64a0ae920000000000000000000000000000000000000000000000000000000081526004016106069190612062565b60405180910390fd5b6000610623838361061e610f75565b610f8f565b90508373ffffffffffffffffffffffffffffffffffffffff168173ffffffffffffffffffffffffffffffffffffffff1614610699578382826040517f64283d7b0000000000000000000000000000000000000000000000000000000081526004016106909392919061275d565b60405180910390fd5b50505050565b6106ba83838360405180602001604052806000815250610c9e565b505050565b60006106ca82610eb0565b9050919050565b6106d9611e1c565b6106e2826111a9565b610721576040517f08c379a0000000000000000000000000000000000000000000000000000000008152600401610718906127e0565b60405180910390fd5b6009600083815260200190815260200160002060405180606001604052908160008201805461074f9061272c565b80601f016020809104026020016040519081016040528092919081815260200182805461077b9061272c565b80156107c85780601f1061079d576101008083540402835291602001916107c8565b820191906000526020600020905b8154815290600101906020018083116107ab57829003601f168201915b505050505081526020016001820180546107e19061272c565b80601f016020809104026020016040519081016040528092919081815260200182805461080d9061272c565b801561085a5780601f1061082f5761010080835404028352916020019161085a565b820191906000526020600020905b81548152906001019060200180831161083d57829003601f168201915b505050505081526020016002820180546108739061272c565b80601f016020809104026020016040519081016040528092919081815260200182805461089f9061272c565b80156108ec5780601f106108c1576101008083540402835291602001916108ec565b820191906000526020600020905b8154815290600101906020018083116108cf57829003601f168201915b5050505050815250509050919050565b60008073ffffffffffffffffffffffffffffffffffffffff168273ffffffffffffffffffffffffffffffffffffffff160361096f5760006040517f89c62b640000000000000000000000000000000000000000000000000000000081526004016109669190612062565b60405180910390fd5b600360008373ffffffffffffffffffffffffffffffffffffffff1673ffffffffffffffffffffffffffffffffffffffff168152602001908152602001600020549050919050565b6109be611265565b6109c860006112ec565b565b60085481565b6109d8611265565b6109e06113b2565b600060085490506109f185826113f8565b604051806060016040528085815260200184815260200183815250600960008381526020019081526020016000206000820151816000019081610a3491906129ac565b506020820151816001019081610a4a91906129ac565b506040820151816002019081610a6091906129ac565b50905050803373ffffffffffffffffffffffffffffffffffffffff167f30385c845b448a36257a6a1716e6ad2e1bc2cbe333cde1e69fe849ad6511adfe60405160405180910390a3600a60003373ffffffffffffffffffffffffffffffffffffffff1673ffffffffffffffffffffffffffffffffffffffff16815260200190815260200160002081908060018154018082558091505060019003906000526020600020016000909190919091505560086000815480929190610b2190612aad565b919050555050610b2f611416565b50505050565b6060600a60008373ffffffffffffffffffffffffffffffffffffffff1673ffffffffffffffffffffffffffffffffffffffff168152602001908152602001600020805480602002602001604051908101604052809291908181526020018280548015610bc057602002820191906000526020600020905b815481526020019060010190808311610bac575b50505050509050919050565b6000600660009054906101000a900473ffffffffffffffffffffffffffffffffffffffff16905090565b606060018054610c059061272c565b80601f0160208091040260200160405190810160405280929190818152602001828054610c319061272c565b8015610c7e5780601f10610c5357610100808354040283529160200191610c7e565b820191906000526020600020905b815481529060010190602001808311610c6157829003601f168201915b5050505050905090565b610c9a610c93610f75565b8383611420565b5050565b610ca984848461059d565b610cbd610cb4610f75565b8585858561158f565b50505050565b6060610cce82610eb0565b506000610cd9611740565b90506000815111610cf95760405180602001604052806000815250610d24565b80610d0384611757565b604051602001610d14929190612b31565b6040516020818303038152906040525b915050919050565b6000600560008473ffffffffffffffffffffffffffffffffffffffff1673ffffffffffffffffffffffffffffffffffffffff16815260200190815260200160002060008373ffffffffffffffffffffffffffffffffffffffff1673ffffffffffffffffffffffffffffffffffffffff16815260200190815260200160002060009054906101000a900460ff16905092915050565b610dc8611265565b600073ffffffffffffffffffffffffffffffffffffffff168173ffffffffffffffffffffffffffffffffffffffff1603610e3a5760006040517f1e4fbdf7000000000000000000000000000000000000000000000000000000008152600401610e319190612062565b60405180910390fd5b610e43816112ec565b50565b60007f01ffc9a7000000000000000000000000000000000000000000000000000000007bffffffffffffffffffffffffffffffffffffffffffffffffffffffff1916827bffffffffffffffffffffffffffffffffffffffffffffffffffffffff1916149050919050565b600080610ebc83611825565b9050600073ffffffffffffffffffffffffffffffffffffffff168173ffffffffffffffffffffffffffffffffffffffff1603610f2f57826040517f7e273289000000000000000000000000000000000000000000000000000000008152600401610f269190612242565b60405180910390fd5b80915050919050565b60006004600083815260200190815260200160002060009054906101000a900473ffffffffffffffffffffffffffffffffffffffff169050919050565b600033905090565b610f8a8383836001611862565b505050565b600080610f9b84611825565b9050600073ffffffffffffffffffffffffffffffffffffffff168373ffffffffffffffffffffffffffffffffffffffff1614610fdd57610fdc818486611a27565b5b600073ffffffffffffffffffffffffffffffffffffffff168173ffffffffffffffffffffffffffffffffffffffff161461106e5761101f600085600080611862565b6001600360008373ffffffffffffffffffffffffffffffffffffffff1673ffffffffffffffffffffffffffffffffffffffff168152602001908152602001600020600082825403925050819055505b600073ffffffffffffffffffffffffffffffffffffffff168573ffffffffffffffffffffffffffffffffffffffff16146110f1576001600360008773ffffffffffffffffffffffffffffffffffffffff1673ffffffffffffffffffffffffffffffffffffffff168152602001908152602001600020600082825401925050819055505b846002600086815260200190815260200160002060006101000a81548173ffffffffffffffffffffffffffffffffffffffff021916908373ffffffffffffffffffffffffffffffffffffffff160217905550838573ffffffffffffffffffffffffffffffffffffffff168273ffffffffffffffffffffffffffffffffffffffff167fddf252ad1be2c89b69c2b068fc378daa952ba7f163c4a11628f55a4df523b3ef60405160405180910390a4809150509392505050565b60003073ffffffffffffffffffffffffffffffffffffffff16636352211e836040518263ffffffff1660e01b81526004016111e49190612242565b602060405180830381865afa92505050801561121e57506040513d601f19601f8201168201806040525081019061121b9190612b6a565b60015b61122b5760009050611260565b600073ffffffffffffffffffffffffffffffffffffffff168173ffffffffffffffffffffffffffffffffffffffff1614159150505b919050565b61126d610f75565b73ffffffffffffffffffffffffffffffffffffffff1661128b610bcc565b73ffffffffffffffffffffffffffffffffffffffff16146112ea576112ae610f75565b6040517f118cdaa70000000000000000000000000000000000000000000000000000000081526004016112e19190612062565b60405180910390fd5b565b6000600660009054906101000a900473ffffffffffffffffffffffffffffffffffffffff16905081600660006101000a81548173ffffffffffffffffffffffffffffffffffffffff021916908373ffffffffffffffffffffffffffffffffffffffff1602179055508173ffffffffffffffffffffffffffffffffffffffff168173ffffffffffffffffffffffffffffffffffffffff167f8be0079c531659141344cd1fd0a4f28419497f9722a3daafe3b4186f6b6457e060405160405180910390a35050565b6002600754036113ee576040517f3ee5aeb500000000000000000000000000000000000000000000000000000000815260040160405180910390fd5b6002600781905550565b611412828260405180602001604052806000815250611aeb565b5050565b6001600781905550565b600073ffffffffffffffffffffffffffffffffffffffff168273ffffffffffffffffffffffffffffffffffffffff160361149157816040517f5b08ba180000000000000000000000000000000000000000000000000000000081526004016114889190612062565b60405180910390fd5b80600560008573ffffffffffffffffffffffffffffffffffffffff1673ffffffffffffffffffffffffffffffffffffffff16815260200190815260200160002060008473ffffffffffffffffffffffffffffffffffffffff1673ffffffffffffffffffffffffffffffffffffffff16815260200190815260200160002060006101000a81548160ff0219169083151502179055508173ffffffffffffffffffffffffffffffffffffffff168373ffffffffffffffffffffffffffffffffffffffff167f17307eab39ab6107e8899845ad3d59bd9653f200f220920489ca2b5937696c31836040516115829190611ef1565b60405180910390a3505050565b60008373ffffffffffffffffffffffffffffffffffffffff163b1115611739578273ffffffffffffffffffffffffffffffffffffffff1663150b7a02868685856040518563ffffffff1660e01b81526004016115ee9493929190612bec565b6020604051808303816000875af192505050801561162a57506040513d601f19601f820116820180604052508101906116279190612c4d565b60015b6116ae573d806000811461165a576040519150601f19603f3d011682016040523d82523d6000602084013e61165f565b606091505b5060008151036116a657836040517f64a0ae9200000000000000000000000000000000000000000000000000000000815260040161169d9190612062565b60405180910390fd5b805181602001fd5b63150b7a0260e01b7bffffffffffffffffffffffffffffffffffffffffffffffffffffffff1916817bffffffffffffffffffffffffffffffffffffffffffffffffffffffff19161461173757836040517f64a0ae9200000000000000000000000000000000000000000000000000000000815260040161172e9190612062565b60405180910390fd5b505b5050505050565b606060405180602001604052806000815250905090565b60606000600161176684611b0f565b01905060008167ffffffffffffffff81111561178557611784612267565b5b6040519080825280601f01601f1916602001820160405280156117b75781602001600182028036833780820191505090505b509050600082602001820190505b60011561181a578080600190039150507f3031323334353637383961626364656600000000000000000000000000000000600a86061a8153600a858161180e5761180d612c7a565b5b049450600085036117c5575b819350505050919050565b60006002600083815260200190815260200160002060009054906101000a900473ffffffffffffffffffffffffffffffffffffffff169050919050565b808061189b5750600073ffffffffffffffffffffffffffffffffffffffff168273ffffffffffffffffffffffffffffffffffffffff1614155b156119cf5760006118ab84610eb0565b9050600073ffffffffffffffffffffffffffffffffffffffff168373ffffffffffffffffffffffffffffffffffffffff161415801561191657508273ffffffffffffffffffffffffffffffffffffffff168173ffffffffffffffffffffffffffffffffffffffff1614155b801561192957506119278184610d2c565b155b1561196b57826040517fa9fbf51f0000000000000000000000000000000000000000000000000000000081526004016119629190612062565b60405180910390fd5b81156119cd57838573ffffffffffffffffffffffffffffffffffffffff168273ffffffffffffffffffffffffffffffffffffffff167f8c5be1e5ebec7d5bd14f71427d1e84f3dd0314c0f7b2291e5b200ac8c7c3b92560405160405180910390a45b505b836004600085815260200190815260200160002060006101000a81548173ffffffffffffffffffffffffffffffffffffffff021916908373ffffffffffffffffffffffffffffffffffffffff16021790555050505050565b611a32838383611c62565b611ae657600073ffffffffffffffffffffffffffffffffffffffff168373ffffffffffffffffffffffffffffffffffffffff1603611aa757806040517f7e273289000000000000000000000000000000000000000000000000000000008152600401611a9e9190612242565b60405180910390fd5b81816040517f177e802f000000000000000000000000000000000000000000000000000000008152600401611add929190612ca9565b60405180910390fd5b505050565b611af58383611d23565b611b0a611b00610f75565b600085858561158f565b505050565b600080600090507a184f03e93ff9f4daa797ed6e38ed64bf6a1f0100000000000000008310611b6d577a184f03e93ff9f4daa797ed6e38ed64bf6a1f0100000000000000008381611b6357611b62612c7a565b5b0492506040810190505b6d04ee2d6d415b85acef81000000008310611baa576d04ee2d6d415b85acef81000000008381611ba057611b9f612c7a565b5b0492506020810190505b662386f26fc100008310611bd957662386f26fc100008381611bcf57611bce612c7a565b5b0492506010810190505b6305f5e1008310611c02576305f5e1008381611bf857611bf7612c7a565b5b0492506008810190505b6127108310611c27576127108381611c1d57611c1c612c7a565b5b0492506004810190505b60648310611c4a5760648381611c4057611c3f612c7a565b5b0492506002810190505b600a8310611c59576001810190505b80915050919050565b60008073ffffffffffffffffffffffffffffffffffffffff168373ffffffffffffffffffffffffffffffffffffffff1614158015611d1a57508273ffffffffffffffffffffffffffffffffffffffff168473ffffffffffffffffffffffffffffffffffffffff161480611cdb5750611cda8484610d2c565b5b80611d1957508273ffffffffffffffffffffffffffffffffffffffff16611d0183610f38565b73ffffffffffffffffffffffffffffffffffffffff16145b5b90509392505050565b600073ffffffffffffffffffffffffffffffffffffffff168273ffffffffffffffffffffffffffffffffffffffff1603611d955760006040517f64a0ae92000000000000000000000000000000000000000000000000000000008152600401611d8c9190612062565b60405180910390fd5b6000611da383836000610f8f565b9050600073ffffffffffffffffffffffffffffffffffffffff168173ffffffffffffffffffffffffffffffffffffffff1614611e175760006040517f73c6ac6e000000000000000000000000000000000000000000000000000000008152600401611e0e9190612062565b60405180910390fd5b505050565b60405180606001604052806060815260200160608152602001606081525090565b6000604051905090565b600080fd5b600080fd5b60007fffffffff0000000000000000000000000000000000000000000000000000000082169050919050565b611e8681611e51565b8114611e9157600080fd5b50565b600081359050611ea381611e7d565b92915050565b600060208284031215611ebf57611ebe611e47565b5b6000611ecd84828501611e94565b91505092915050565b60008115159050919050565b611eeb81611ed6565b82525050565b6000602082019050611f066000830184611ee2565b92915050565b600081519050919050565b600082825260208201905092915050565b60005b83811015611f46578082015181840152602081019050611f2b565b60008484015250505050565b6000601f19601f8301169050919050565b6000611f6e82611f0c565b611f788185611f17565b9350611f88818560208601611f28565b611f9181611f52565b840191505092915050565b60006020820190508181036000830152611fb68184611f63565b905092915050565b6000819050919050565b611fd181611fbe565b8114611fdc57600080fd5b50565b600081359050611fee81611fc8565b92915050565b60006020828403121561200a57612009611e47565b5b600061201884828501611fdf565b91505092915050565b600073ffffffffffffffffffffffffffffffffffffffff82169050919050565b600061204c82612021565b9050919050565b61205c81612041565b82525050565b60006020820190506120776000830184612053565b92915050565b61208681612041565b811461209157600080fd5b50565b6000813590506120a38161207d565b92915050565b600080604083850312156120c0576120bf611e47565b5b60006120ce85828601612094565b92505060206120df85828601611fdf565b9150509250929050565b60008060006060848603121561210257612101611e47565b5b600061211086828701612094565b935050602061212186828701612094565b925050604061213286828701611fdf565b9150509250925092565b600082825260208201905092915050565b600061215882611f0c565b612162818561213c565b9350612172818560208601611f28565b61217b81611f52565b840191505092915050565b600060608301600083015184820360008601526121a3828261214d565b915050602083015184820360208601526121bd828261214d565b915050604083015184820360408601526121d7828261214d565b9150508091505092915050565b600060208201905081810360008301526121fe8184612186565b905092915050565b60006020828403121561221c5761221b611e47565b5b600061222a84828501612094565b91505092915050565b61223c81611fbe565b82525050565b60006020820190506122576000830184612233565b92915050565b600080fd5b600080fd5b7f4e487b7100000000000000000000000000000000000000000000000000000000600052604160045260246000fd5b61229f82611f52565b810181811067ffffffffffffffff821117156122be576122bd612267565b5b80604052505050565b60006122d1611e3d565b90506122dd8282612296565b919050565b600067ffffffffffffffff8211156122fd576122fc612267565b5b61230682611f52565b9050602081019050919050565b82818337600083830152505050565b6000612335612330846122e2565b6122c7565b90508281526020810184848401111561235157612350612262565b5b61235c848285612313565b509392505050565b600082601f8301126123795761237861225d565b5b8135612389848260208601612322565b91505092915050565b600080600080608085870312156123ac576123ab611e47565b5b60006123ba87828801612094565b945050602085013567ffffffffffffffff8111156123db576123da611e4c565b5b6123e787828801612364565b935050604085013567ffffffffffffffff81111561240857612407611e4c565b5b61241487828801612364565b925050606085013567ffffffffffffffff81111561243557612434611e4c565b5b61244187828801612364565b91505092959194509250565b600081519050919050565b600082825260208201905092915050565b6000819050602082019050919050565b61248281611fbe565b82525050565b60006124948383612479565b60208301905092915050565b6000602082019050919050565b60006124b88261244d565b6124c28185612458565b93506124cd83612469565b8060005b838110156124fe5781516124e58882612488565b97506124f0836124a0565b9250506001810190506124d1565b5085935050505092915050565b6000602082019050818103600083015261252581846124ad565b905092915050565b61253681611ed6565b811461254157600080fd5b50565b6000813590506125538161252d565b92915050565b600080604083850312156125705761256f611e47565b5b600061257e85828601612094565b925050602061258f85828601612544565b9150509250929050565b600067ffffffffffffffff8211156125b4576125b3612267565b5b6125bd82611f52565b9050602081019050919050565b60006125dd6125d884612599565b6122c7565b9050828152602081018484840111156125f9576125f8612262565b5b612604848285612313565b509392505050565b600082601f8301126126215761262061225d565b5b81356126318482602086016125ca565b91505092915050565b6000806000806080858703121561265457612653611e47565b5b600061266287828801612094565b945050602061267387828801612094565b935050604061268487828801611fdf565b925050606085013567ffffffffffffffff8111156126a5576126a4611e4c565b5b6126b18782880161260c565b91505092959194509250565b600080604083850312156126d4576126d3611e47565b5b60006126e285828601612094565b92505060206126f385828601612094565b9150509250929050565b7f4e487b7100000000000000000000000000000000000000000000000000000000600052602260045260246000fd5b6000600282049050600182168061274457607f821691505b602082108103612757576127566126fd565b5b50919050565b60006060820190506127726000830186612053565b61277f6020830185612233565b61278c6040830184612053565b949350505050565b7f546f6b656e20646f6573206e6f74206578697374000000000000000000000000600082015250565b60006127ca601483611f17565b91506127d582612794565b602082019050919050565b600060208201905081810360008301526127f9816127bd565b9050919050565b60008190508160005260206000209050919050565b60006020601f8301049050919050565b600082821b905092915050565b6000600883026128627fffffffffffffffffffffffffffffffffffffffffffffffffffffffffffffffff82612825565b61286c8683612825565b95508019841693508086168417925050509392505050565b6000819050919050565b60006128a96128a461289f84611fbe565b612884565b611fbe565b9050919050565b6000819050919050565b6128c38361288e565b6128d76128cf826128b0565b848454612832565b825550505050565b600090565b6128ec6128df565b6128f78184846128ba565b505050565b5b8181101561291b576129106000826128e4565b6001810190506128fd565b5050565b601f8211156129605761293181612800565b61293a84612815565b81016020851015612949578190505b61295d61295585612815565b8301826128fc565b50505b505050565b600082821c905092915050565b600061298360001984600802612965565b1980831691505092915050565b600061299c8383612972565b9150826002028217905092915050565b6129b582611f0c565b67ffffffffffffffff8111156129ce576129cd612267565b5b6129d8825461272c565b6129e382828561291f565b600060209050601f831160018114612a165760008415612a04578287015190505b612a0e8582612990565b865550612a76565b601f198416612a2486612800565b60005b82811015612a4c57848901518255600182019150602085019450602081019050612a27565b86831015612a695784890151612a65601f891682612972565b8355505b6001600288020188555050505b505050505050565b7f4e487b7100000000000000000000000000000000000000000000000000000000600052601160045260246000fd5b6000612ab882611fbe565b91507fffffffffffffffffffffffffffffffffffffffffffffffffffffffffffffffff8203612aea57612ae9612a7e565b5b600182019050919050565b600081905092915050565b6000612b0b82611f0c565b612b158185612af5565b9350612b25818560208601611f28565b80840191505092915050565b6000612b3d8285612b00565b9150612b498284612b00565b91508190509392505050565b600081519050612b648161207d565b92915050565b600060208284031215612b8057612b7f611e47565b5b6000612b8e84828501612b55565b91505092915050565b600081519050919050565b600082825260208201905092915050565b6000612bbe82612b97565b612bc88185612ba2565b9350612bd8818560208601611f28565b612be181611f52565b840191505092915050565b6000608082019050612c016000830187612053565b612c0e6020830186612053565b612c1b6040830185612233565b8181036060830152612c2d8184612bb3565b905095945050505050565b600081519050612c4781611e7d565b92915050565b600060208284031215612c6357612c62611e47565b5b6000612c7184828501612c38565b91505092915050565b7f4e487b7100000000000000000000000000000000000000000000000000000000600052601260045260246000fd5b6000604082019050612cbe6000830185612053565b612ccb6020830184612233565b939250505056fea2646970667358221220967dbe837778b9b4081e45f602fd180cbe3f24c59928ddc987cad5c3889acb8264736f6c63430008140033",
  "linkReferences": {},
  "deployedLinkReferences": {}
}